:100000000C94AB000C94D3000C94D3000C94890690
:100010000C942F070C940B070C94D3000C94D30072
:100020000C94D3000C94D3000C94D3000C94D30004
:100030000C94D3000C94D3000C94D3000C94D300F4
:100040000C94AB070C94D3000C9479070C945307D1
:100050000C94D3000C94D3000C94D3000C94D300D4
:100060000C94D3000C94D30000C2010001001100D5
:1000700011000C0000E100000A002500250021000D
:10008000009600001900390039003600127A00008D
:100090001F004600460044008070000022004D0012
:1000A0004D004A00004B00003600750075007200DC
:1000B000403800004A009C009C0099008025000008
:1000C0007200EC00EC00E900C0120000E900DA0167
:1000D000DA01D70160090000D701B603B603B30304
:1000E000B0040000B3036E076E076B072C0100001D
:1000F000DC0EC11DC11DBE1D000000002300260036
:10010000290000000000240027002A000000000051
:10011000250028002B000404040404040404020243
:100120000202020203030303030301020408102076
:100130004080010204081020010204081020000081
:100140000008000201000003040700000000000096
:1001500000008406670A11241FBECFEFD8E0DEBF7F
:10016000CDBF22E0A2E3B1E001C01D92A833B207E7
:10017000E1F711E0A0E0B1E0ECEBF5E102C00590A1
:100180000D92A233B107D9F710E0CAEAD0E004C05B
:100190002197FE010E94B70AC93AD107C9F70E9408
:1001A0008C080C94A00A0C94000080913602909167
:1001B000370288519240A1F0809133028E7F809364
:1001C00033028FB7F894109235021092340228E16E
:1001D00032E030933702209336028FBF81E00895DA
:1001E00080E00895DC015196ED91FC915297908149
:1001F00050968C91809589238083089520913602B2
:10020000309137022817390781F490913402809198
:100210003502981751F0E0913402F0E0E852FE4FB9
:100220008081082E000C990B08958FEF9FEF0895A1
:1002300020913602309137022817390739F48FB7E9
:10024000F89410923502109234028FBF08952091D5
:100250003602309137022817390771F48091350240
:100260002091340290E0805C9F4F821B910960E4F2
:1002700070E00E94A30A089590E080E00895209124
:1002800036023091370228173907B9F490913402B9
:1002900080913502981789F0E0913402F0E0E8523D
:1002A000FE4F80812091340230E02F5F3F4F2F734B
:1002B00033272093340290E008958FEF9FEF089545
:1002C00020E001972FEF8F3F9207D9F70895AF9263
:1002D000BF92CF92DF92EF92FF920F931F93CF9333
:1002E000DF936C017B018B01040F151FEB015E0195
:1002F000AE18BF08C017D10759F06991D601ED912A
:10030000FC910190F081E02DC6010995892B79F7C8
:10031000C501DF91CF911F910F91FF90EF90DF907A
:10032000CF90BF90AF900895FC01918D828D98176A
:1003300061F0A28DAE0FBF2FB11D5D968C91928D95
:100340009F5F9F73928F90E008958FEF9FEF0895C6
:10035000FC01918D828D981731F0828DE80FF11D8F
:10036000858D90E008958FEF9FEF0895FC01918DAA
:10037000228D892F90E0805C9F4F821B91098F73A3
:1003800099270895FC01A48DA80FB92FB11DA35A78
:10039000BF4F2C91848D90E001968F739927848FA5
:1003A000A689B7892C93A089B1898C9180648C939C
:1003B000938D848D981306C00288F389E02D808187
:1003C0008F7D80830895EF92FF920F931F93CF93B9
:1003D000DF93EC01F62E81E0888F9B8D8C8D981336
:1003E00016C0E889F989808185FF11C0EE89FF89EF
:1003F0006083E889F98980818064808381E090E06E
:10040000DF91CF911F910F91FF90EF9008950B8D89
:1004100010E00F5F1F4F0F731127E02E8C8D8E1190
:100420000CC00FB607FCFACFE889F989808185FFF7
:10043000F5CFCE010E94C201F1CFEB8DEC0FFD2F65
:10044000F11DE35AFF4FF0820B8FEA89FB8980810F
:1004500080628083D3CFCF93DF93EC01888D882394
:10046000B9F0AA89BB89E889F9898C9185FD03C017
:10047000808186FD0DC00FB607FCF7CF8C9185FFFC
:10048000F2CF808185FFEDCFCE010E94C201E9CF7E
:10049000DF91CF91089590E0FC01E25CFE4F249142
:1004A000FC01E65DFE4F3491FC01EA5EFE4FE491F3
:1004B000EE23C9F0222339F0233011F1A8F42130C2
:1004C00029F1223039F1F0E0EE0FFF1FE45FFE4F1B
:1004D000A591B4918FB7F894EC9161112BC0309530
:1004E0003E233C938FBF08952730C1F02830E1F0C0
:1004F000243049F7809180008F7D80938000E3CF86
:10050000809180008F7780938000DDCF84B58F77D6
:1005100084BDD9CF84B58F7D84BDD5CF8091B00007
:100520008F778093B000CFCF8091B0008F7D809384
:10053000B000C9CF3E2B3C93D5CFCF93DF9390E053
:10054000FC01E65DFE4F24918A5E9E4FFC01849182
:100550008823D1F090E0880F991FFC01EE5FFE4FD9
:10056000A591B491FC01E45FFE4FC591D491611156
:100570000EC09FB7F8948C91E22FE0958E238C9358
:100580002881E223E8839FBFDF91CF9108958FB741
:10059000F894EC91E22BEC938FBFF6CFDB01815006
:1005A0008E3708F008C3E82FF0E0E752FD4F0C94B7
:1005B000B70A6903DB057703DB05DB05DB05DB0534
:1005C0005D034D05DB05DB05DB055703DB05DB05BF
:1005D000DB05DB05DB05DB05DB05DB057E03DB057A
:1005E000DB05DB057003630397038B03910385032E
:1005F0005205DA04A405F204FE040A0522059F054B
:100600003A0546052E056805B7055705C305CF050C
:100610004105D504E104ED04F904050511051D05A6
:100620002905350598059305BC056305C805D4055E
:10063000E6041F0426042D0434043B044204490448
:10064000500457045E0465046C0473047A04810446
:1006500088048F0496049D04A404AB04B204B90476
:10066000C004C704CE046F0587057B0516055C052D
:10067000AB059D03A203A703AC03B103B603BB0301
:10068000C003C503CA03CF03D403D903DE03E303C6
:10069000E803ED03F203F703FC03010406040B0473
:1006A000100415041A0474058C058005B0051C920D
:1006B00088E212968C9381E008951C928AE2129649
:1006C0008C9381E008951C9289E212968C9381E0CC
:1006D000089580EE8C9384E012968C9381E00895C7
:1006E00080EE8C938DE112968C9381E0089580EEDC
:1006F0008C9386E012968C9381E0089580EE8C9323
:1007000089E112968C9381E008951C9281E51296FE
:100710008C9381E008951C928FE412968C9381E073
:1007200008951C9282E512968C9381E008951C92A4
:1007300080E512968C9381E0089584E012968C9364
:1007400081E0089585E012968C9381E0089586E01B
:1007500012968C9381E0089587E012968C9381E045
:10076000089588E012968C9381E0089589E01296AE
:100770008C9381E008958AE012968C9381E008952D
:100780008BE012968C9381E008958CE012968C9306
:1007900081E008958DE012968C9381E008958EE0BB
:1007A00012968C9381E008958FE012968C9381E0ED
:1007B000089580E112968C9381E0089581E112966C
:1007C0008C9381E0089582E112968C9381E00895E4
:1007D00083E112968C9381E0089584E112968C93C4
:1007E00081E0089585E112968C9381E0089586E179
:1007F00012968C9381E0089587E112968C9381E0A4
:10080000089588E112968C9381E0089589E112960B
:100810008C9381E008958AE112968C9381E008958B
:100820008BE112968C9381E008958CE112968C9363
:1008300081E008958DE112968C9381E0089582E025
:100840008C9384E012968C9381E0089582E08C93DF
:1008500085E012968C9381E0089582E08C9386E087
:1008600012968C9381E0089582E08C9387E0129633
:100870008C9381E0089582E08C9388E012968C93AB
:1008800081E0089582E08C9389E012968C9381E058
:10089000089582E08C938AE012968C9381E008950B
:1008A00082E08C938BE012968C9381E0089582E035
:1008B0008C938CE012968C9381E0089582E08C9367
:1008C0008DE012968C9381E0089582E08C938EE007
:1008D00012968C9381E0089582E08C938FE01296BB
:1008E0008C9381E0089582E08C9380E112968C9342
:1008F00081E0089582E08C9381E112968C9381E0EF
:10090000089582E08C9382E112968C9381E00895A1
:1009100082E08C9383E112968C9381E0089582E0CB
:100920008C9384E112968C9381E0089582E08C93FD
:1009300085E112968C9381E0089582E08C9386E1A4
:1009400012968C9381E0089582E08C9387E1129651
:100950008C9381E0089582E08C9388E112968C93C9
:1009600081E0089582E08C9389E112968C9381E076
:10097000089582E08C938AE112968C9381E0089529
:1009800082E08C938BE112968C9381E0089582E053
:100990008C938CE112968C9381E0089582E08C9385
:1009A0008DE112968C9381E008958EE112968C93DE
:1009B00081E0089582E08C938EE112968C9381E021
:1009C00008958FE112968C9381E0089582E08C93D4
:1009D0008FE112968C9381E0089580E212968C93B9
:1009E00081E0089582E08C9380E212968C9381E0FE
:1009F000089581E212968C9381E0089582E08C93B1
:100A000081E212968C9381E0089582E212968C9393
:100A100081E0089582E08C9382E212968C9381E0CB
:100A2000089583E212968C9381E0089582E08C937E
:100A300083E212968C9381E0089584E212968C935F
:100A400081E0089582E08C9384E212968C9381E099
:100A5000089585E212968C9381E0089582E08C934C
:100A600085E212968C9381E0089586E212968C932B
:100A700081E0089582E08C9386E212968C9381E067
:100A8000089587E212968C9381E0089582E08C931A
:100A900087E212968C9381E008958BE212968C93F4
:100AA00081E008958CE212968C9381E008958DE2A6
:100AB00012968C9381E0089582E08C938DE21296D9
:100AC0008C9381E008958EE212968C9381E00895D4
:100AD00082E08C938EE212968C9381E008958FE2EF
:100AE00012968C9381E0089582E08C938FE21296A7
:100AF0008C9381E0089580E312968C9381E00895B1
:100B000082E08C9380E312968C9381E0089581E3D8
:100B100012968C9381E0089582E08C9381E3129683
:100B20008C9381E0089583E312968C9381E008957D
:100B300082E08C9383E312968C9381E0089584E3A2
:100B400012968C9381E0089582E08C9384E3129650
:100B50008C9381E0089585E312968C9381E008954B
:100B600082E08C9385E312968C9381E0089586E36E
:100B700012968C9381E0089582E08C9386E312961E
:100B80008C9381E0089587E312968C9381E0089519
:100B900082E08C9387E312968C9381E0089588E33A
:100BA00012968C9381E0089582E08C9388E31296EC
:100BB0008C9381E0089580E008958F929F92AF9288
:100BC000BF92CF92DF92EF92FF92CF93C42F4B014F
:100BD0005C01B694A79497948794C12CD12C76018C
:100BE00061E08C2F0E944B028FEFC81AD80AE80AE6
:100BF000F80A8C149D04AE04BF0491F7812C912C4B
:100C0000540160E08C2F0E944B028FEF881A980AE3
:100C1000A80AB80AC814D904EA04FB0491F7CF91D2
:100C2000FF90EF90DF90CF90BF90AF909F908F900C
:100C30000895DF92EF92FF920F931F93CF93DF936C
:100C4000EC01D62E898D9A8D892B51F1EFB6F8944F
:100C50008B8D81FD2FC0CE010E94F200898D9A8D6F
:100C600005960E9460018B8D08E010E0FF24F3944C
:100C700081FF2EC08D2D8F2121F1CE010E94F20027
:100C8000898D9A8D0E946001FF0C0150110991F726
:100C9000CE010E94F200EFBE898D9A8D0E94600104
:100CA00090E080E0DF91CF911F910F91FF90EF9046
:100CB000DF900895E989FA8980819889892B80835A
:100CC000CDCFE989FA8980819889892B8083D8CF13
:100CD0008D2D8F21A9F0E989FA8980819889892B46
:100CE0008083898D9A8D0E946001FF0C015011094B
:100CF00079F7E989FA8980819889892B8083CBCF1C
:100D0000CE010E94F200EDCF0E94F5070E9422085A
:100D100008951F920F920FB60F921124EF92FF9237
:100D20000F931F932F933F934F935F936F937F93F3
:100D30008F939F93AF93BF93CF93DF93EF93FF93E3
:100D4000C0913602D0913702209749F0EE85FF8599
:100D50009D858B8D81FF1AC080818923D1F4FF91FD
:100D6000EF91DF91CF91BF91AF919F918F917F9143
:100D70006F915F914F913F912F911F910F91FF9034
:100D8000EF900F900FBE0F901F90189580818923D0
:100D900031F78B899C890E94600188E0E82EF12C54
:100DA00010E001E08D899E890E946001EE85FF853B
:100DB00080819D85892339F1102B000F81E0E81A8D
:100DC000F10881F78F89988D0E9460018B8D81FDDC
:100DD0001095809135022091340290E001968F7336
:100DE00099272817190699F0E0913502F0E0E852AA
:100DF000FE4F10838091350290E001968F73992702
:100E000080933502ACCF802F80951823D6CF8B8D61
:100E100081608B8FA4CF1F920F920FB60F92112477
:100E20002F933F934F935F936F937F938F939F93F2
:100E3000AF93BF93EF93FF930E948906FF91EF91C9
:100E4000BF91AF919F918F917F916F915F914F91E2
:100E50003F912F910F900FBE0F901F9018951F92EA
:100E60000F920FB60F9211242F933F934F935F93DE
:100E70006F937F938F939F93AF93BF93EF93FF9362
:100E80000E948906FF91EF91BF91AF919F918F9141
:100E90007F916F915F914F913F912F910F900FBE76
:100EA0000F901F9018951F920F920FB60F9211245A
:100EB0002F933F934F935F936F937F938F939F9362
:100EC000AF93BF93EF93FF938BE391E00E94C20136
:100ED000FF91EF91BF91AF919F918F917F916F9112
:100EE0005F914F913F912F910F900FBE0F901F90E8
:100EF00018951F920F920FB60F9211242F938F9374
:100F00009F93EF93FF93E0914B01F0914C0180810F
:100F1000E0915101F091520182FD1BC090818091BE
:100F200054018F5F8F7320915501821741F0E0913A
:100F30005401F0E0E55CFE4F958F80935401FF91E2
:100F4000EF919F918F912F910F900FBE0F901F9057
:100F500018958081F4CF1F920F920FB60F92112433
:100F60002F933F938F939F93AF93BF9380913701BC
:100F700090913801A0913901B0913A013091360138
:100F800023E0230F2D3758F50196A11DB11D2093A5
:100F900036018093370190933801A0933901B093C3
:100FA0003A018091320190913301A0913401B091C6
:100FB00035010196A11DB11D80933201909333013B
:100FC000A0933401B0933501BF91AF919F918F9160
:100FD0003F912F910F900FBE0F901F90189526E80C
:100FE000230F0296A11DB11DD2CFEBE3F1E01382D6
:100FF000128288EE93E0A0E0B0E084839583A6831C
:10100000B78386E291E09183808385EC90E09587B9
:10101000848784EC90E09787868780EC90E0918BC2
:10102000808B81EC90E0938B828B82EC90E0958BAF
:10103000848B86EC90E0978B868B118E128E138EAC
:10104000148E089510921B0210921A0288EE93E0FB
:10105000A0E0B0E080931C0290931D02A0931E02BA
:10106000B0931F0286E191E09093190280931802D9
:1010700010922C0210922B0210922E0210922D022E
:101080001092300210922F0210923202109231020E
:10109000809133028E7F8D7F8093330261E088E000
:1010A0000E949D0261E088E00E944B02E2E3F1E0D1
:1010B000E491E0932802EEE1F1E0E491F0E0EE0F3C
:1010C000FF1FE45FFE4F8591949190932A028093D5
:1010D000290260E087E00E949D028091330281FD39
:1010E00004C061E087E00E944B0287E08093240205
:1010F000E1E3F1E0E491E0932502EDE1F1E0E49138
:10110000F0E0EE0FFF1FE850FF4F85919491909310
:101110002702809326020895CF93DF93CDB7DEB7E1
:1011200062970FB6F894DEBF0FBECDBF8E01055F8C
:101130001F4F88E0F80111928A95E9F7789484B5F9
:10114000826084BD84B5816084BD85B5826085BDC3
:1011500085B5816085BD80916E00816080936E0051
:101160001092810080918100826080938100809143
:1011700081008160809381008091800081608093F4
:1011800080008091B10084608093B1008091B000B4
:1011900081608093B00080917A00846080937A00AF
:1011A00080917A00826080937A0080917A008160D9
:1011B00080937A0080917A00806880937A00109200
:1011C000C100E0914B01F0914C0182E08083E091FD
:1011D0004701F09148011082E0914901F0914A01E4
:1011E0008FEC808310925301E0914F01F0915001F8
:1011F00086E08083E0914D01F0914E018081806115
:101200008083E0914D01F0914E0180818860808360
:10121000E0914D01F0914E01808180688083E091E2
:101220004D01F0914E0180818F7D808310923202BA
:10123000109231021092300210922F0210922E0260
:1012400010922D0210922C0210922B0290E080E05E
:10125000FC01E859FF4F4591559165917491403CCF
:1012600052416105710509F01AC1FC01E459FF4FB3
:101270002591349130932C0220932B02FC01E259EA
:10128000FF4F2591349130932E0220932D02FC01C3
:10129000E059FF4F259134913093300220932F0273
:1012A000FC01EE58FF4F8591949190933202809308
:1012B000310280912F0290913002892BB1F19091EF
:1012C0002402963160F52091680084E0983048F05F
:1012D00031E09E3008F430E081E001C0880F3A959B
:1012E000EAF7822B80936800EDE6F0E0983050F04A
:1012F000EBE6F0E09E3030F0ECE6F0E0963110F0F6
:10130000F0E0E0E04081292F30E0983008F0CDC0D7
:1013100081E001C0880F9A95EAF7842B8083809141
:101320003102909132020E9460010E94D50088EB48
:101330009BE0A0E0B0E080931C0290931D02A0937C
:101340001E02B0931F0260E087E00E949D0261E0F0
:1013500088E00E949D0261E08DE00E949D0260E0B5
:101360008DE00E944B0261E082E00E949D0260E0FD
:1013700082E00E944B024DE060EA76E881E090E076
:101380000E94DD054DE060EA76E881E090E00E9491
:10139000DD0542E060EA76E881E090E00E94DD054C
:1013A00042E060EA76E881E090E00E94DD050E947C
:1013B000D50088E192E00E94270118161906BCF7B3
:1013C00088E192E00E943F01D82E4DE068E873E189
:1013D00080E090E00E94DD0520E6D2123AC042E0B3
:1013E00060EF79E482E090E00E94DD058AE0E0E0D1
:1013F000F1E0DE01119601900D928A95E1F7CE01A0
:1014000001967C011B861C861D861E861F86188AF7
:10141000198A1A8AB801F70181917F010E94CE02D0
:1014200042E068E873E180E090E00E94DD0548E07A
:1014300050E0B8018BE391E00E94670148E050E082
:101440006AE071E08BE391E00E9467010E151F05D1
:10145000C9F61B861C861D861E861F86188A198A59
:101460001A8AB8018D2D0E94CE02882309F49FCFDD
:1014700042E068E873E180E090E00E94DD0548E02A
:1014800050E0B8018BE391E00E94670148E050E032
:101490006AE071E08BE391E00E94670188CF0C96CF
:1014A0008039910509F0D4CE04CF9E3040F4285005
:1014B000310981E001C0880F2A95EAF72ECF2E501E
:1014C000310981E001C0880F2A95EAF726CF86E12D
:1014D00091E0909319028093180220912402263102
:1014E000C0F4EDE6F0E0283030F0EBE6F0E02E302E
:1014F00010F0ECE6F0E03081422F50E0283050F45C
:1015000081E090E001C0880F2A95EAF78095832357
:10151000808308952E3050F44850510981E090E0C6
:1015200001C0880F4A95EAF78095F1CF4E505109D6
:1015300081E090E001C0880F4A95EAF78095E7CFF7
:10154000F8940C94D10A97FB072E16F4009407D058
:1015500077FD09D00E94BD0A07FC05D03EF49095A6
:1015600081959F4F0895709561957F4F0895EE0F77
:10157000FF1F0590F491E02D0994AA1BBB1B51E1BC
:1015800007C0AA1FBB1FA617B70710F0A61BB70BF3
:10159000881F991F5A95A9F780959095BC01CD0198
:1015A000089510E0CAEAD0E004C0FE010E94B70A24
:0C15B0002196CB3AD107C9F7F894FFCF81
:1015BC0048454C50204D45212121020000000000DF
:1015CC000000000000001906670127013F01FE0022
:1015DC00180100000000E3016701B6019401A801A5
:0215EC002B02D0
:00000001FF
